:1000000063C0000086C00000F1C1000018C20000FB
:1000100080C000007EC000007CC000007AC00000EC
:1000200078C0000076C0000074C0000072C00000FC
:1000300070C000006EC000006CC000006AC000000C
:10004000E1C4000066C00000FAC2000062C0000007
:1000500060C000005EC000005CC000005AC000002C
:1000600058C0000056C00000000000070002010058
:100070000003040600000000000000000102040864
:100080001020408001020408102001020408102002
:10009000040404040404040402020202020203032E
:1000A00003030303000000002300260029000000D2
:1000B0000000250028002B0000000000240027007D
:1000C0002A00FF00A903050111241FBECFEFD8E0CD
:1000D000DEBFCDBF11E0A0E0B1E0E6E2FDE002C08E
:1000E00005900D92A032B107D9F722E0A0E2B1E06D
:1000F00001C01D92AA31B207E1F710E0C3E6D0E0DB
:1001000003C02197FE01E7D5C136D107D1F774D0DE
:10011000FEC576CFCF93DF93D0E0C0E04AEABE01C0
:1001200089E791E01BD22196C11582E0D807B1F78B
:10013000DF91CF910895CF93DF93C0E0D2E060913B
:1001400033017091340189E791E006D28093320146
:1001500060913301709134014AE050E08AE791E008
:1001600039D462E071E08AE791E053D34AE050E08D
:10017000609132018AE791E03FD48AE791E01CD494
:1001800080913301909134010196811522E092070C
:1001900071F0909334018093330164E670E080E065
:1001A00090E09FD4219759F6DF91CF910895109256
:1001B000340110923301F1CF61E08091000119D533
:1001C00040E855E260E070E08AE791E06DD2A2DF9E
:1001D000B2CF61E0809100012DD564E670E080E04F
:1001E00090E07FD460E08091000124D564E670E067
:1001F00080E090E076D4EDCF98D4DEDFEADF20E037
:1002000046E062E080E291E088C180E291E03AC19C
:10021000DC011796ED91FC911897908116968C91C0
:10022000809589238083089520E001972FEF8F3FE9
:100230009207D9F708952091770130917801281716
:10024000390789F0FC0121892E7F218B2FB7F89483
:1002500010923601109235019093780180937701C6
:100260002FBF81E0089580E00895EF92FF920F93F1
:100270001F93CF93DF93EC01EC81FD819B818989F2
:1002800081FF0AC08081892351F4DF91CF911F91B2
:100290000F91FF90EF90089580818923B1F78985B0
:1002A0009A85C2DF88E0E82EF12C10E001E08B8512
:1002B0009C85BADFEC81FD8180819B81892331F1AE
:1002C000102B000F81E0E81AF10889F78D859E85D3
:1002D000ABDF898981FD1095809136012091350130
:1002E00090E001968F7399272817190699F0E091ED
:1002F0003601F0E0E95CFE4F10838091360190E01A
:1003000001968F73992780933601BFCF802F8095F8
:100310001823D7CF89898160898BB7CFFC01611100
:1003200001C076CFA781B0859C918681892B8C9363
:100330000895DF92EF92FF920F931F93CF93DF9375
:10034000FC0127853089232B09F448C0162FEC01C6
:1003500072DFDFB6F894698966956170CE01DEDFE1
:100360008F859889059660DF898998E0E92EF12CC0
:1003700001E081FF1EC0812F8023B9F0CE0148DF4C
:100380008F85988951DF000FF1E0EF1AF10899F796
:10039000CE013EDFDFBE8F859889DF91CF911F911F
:1003A0000F91FF90EF90DF903FCF61E0CE01B6DF7D
:1003B000E7CF812F802379F061E0CE01AFDF8F8519
:1003C000988932DF000F81E0E81AF10891F761E0C7
:1003D000CE01A4DFDFCFCE011BDFF1CFDF91CF91C4
:1003E0001F910F91FF90EF90DF9008951F920F9251
:1003F0000FB60F9211242F933F934F935F936F93F8
:100400007F938F939F93AF93BF93EF93FF938091CD
:10041000770190917801009709F027DFFF91EF9124
:10042000BF91AF919F918F917F916F915F914F910C
:100430003F912F910F900FBE0F901F9018951F9214
:100440000F920FB60F9211242F933F934F935F9308
:100450006F937F938F939F93AF93BF93EF93FF938C
:10046000C5DFFF91EF91BF91AF919F918F917F91E8
:100470006F915F914F913F912F910F900FBE0F9011
:100480001F90189508951F93CF93DF93EC01162FBB
:1004900061E0812FAED361E0812FCCD3812F90E03A
:1004A000FC01E458FF4FE491EE83FC01E057FF4F5D
:1004B000E491F0E0EE0FFF1FE255FF4F859194911C
:1004C00098878F83DF91CF911F9108951F93CF93CA
:1004D000DF93EC01162F60E0812F8BD3898981FD9A
:1004E00003C061E0812FA6D31A83812F90E0FC0125
:1004F000E458FF4FE491EB83FC01E057FF4FE49198
:10050000F0E0EE0FFF1FEC55FF4F859194919D8316
:100510008C83DF91CF911F9108951F93CF93DF9329
:10052000EC01162F88E091E0998388831A8619865A
:100530001C861B861E861D86188A1F8689898E7FCB
:1005400020FB81F9898B642FCE019DDF612FCE01C5
:10055000DF91CF911F91BACFCB01C3C3CB01642FE1
:10056000C8C3FC0122813381F901E058FF4F80812B
:1005700091812E573F4FF90120813181821B930BCE
:100580008F7799270895FC0182819381FC01EE57B2
:10059000FF4F2081318132974081518142175307AB
:1005A00031F0820F931FFC01808190E008958FEF5E
:1005B0009FEF0895DC0112968D919C91FC01EE57FE
:1005C000FF4F20813181DC01A058BF4F4D915C91DC
:1005D0004217530761F0820F931FDC018C912F5F4C
:1005E0003F4F2F7733273183208390E008958FEF9B
:1005F0009FEF0895DC0112968D919C91FC01E058CB
:10060000FF4F8E579F4FDC018D919C91918380838A
:100610000895FC01A085B185218981E090E002C0A8
:10062000880F991F2A95E2F72C9130E0282339236F
:10063000232BD1F30484F585E02D608308951F9268
:100640000F920FB60F9211242F933F934F936F93F6
:100650007F938F939F93EF93FF934091C6002091D8
:100660000D0230910E02C90101968F779927609192
:100670000F02709110028617970741F023573E4FE3
:10068000F901408390930E0280930D02FF91EF9148
:100690009F918F917F916F914F913F912F910F90EB
:1006A0000FBE0F901F901895CF93DF93EC019A0126
:1006B000AB01E885F985211581EE38074105510523
:1006C00009F443C06A8981E090E001C0880F6A950F
:1006D000EAF7808360E079E08DE390E0DAD2BA0156
:1006E000A90141505109610971097695679557959E
:1006F0004795CA01EC81FD819083EE81FF81808363
:10070000EA85FB8520813E8581E090E0AC0101C057
:10071000440F3A95EAF7242B2083EA85FB85208154
:100720003F85AC0101C0440F3A95EAF7242B2083A2
:10073000EA85FB852081388901C0880F3A95EAF760
:10074000822B8083DF91CF910895108280E190E029
:10075000D1CFEAE7F1E082E191E0918380838DE8F7
:1007600091E09383828385EC90E09583848384EC8D
:1007700090E09783868380EC90E09187808781EC7E
:1007800090E09387828786EC90E09587848784E069
:10079000868783E0878787E0808B85E0818B81E097
:1007A000828B08950F931F93CF93DF93EC018B01FE
:1007B000F80161918F01662341F0E881F981019090
:1007C000F081E02DCE010995F3CFDF91CF911F91FC
:1007D0000F910895EF92FF920F931F93CF93DF93A2
:1007E0007C01EB018B01040F151FC017D10751F0DD
:1007F0006991D701ED91FC910190F081E02DC70145
:100800000995F3CFDF91CF911F910F91FF90EF905A
:100810000895DC01ED91FC910280F381E02D0994B3
:100820002F923F924F925F926F927F928F929F9200
:10083000AF92BF92CF92DF92EF92FF920F931F93EE
:10084000CF93DF93CDB7DEB7A0970FB6F894DEBF96
:100850000FBECDBF6C014115510561057105E1F475
:1008600050E040E060E3A0960FB6F894DEBF0FBE04
:10087000CDBFDF91CF911F910F91FF90EF90DF904F
:10088000CF90BF90AF909F908F907F906F905F9030
:100890004F903F902F908AC08E010F5F1F4F412CC9
:1008A000512C32011801822E912CB12CA12CCB019C
:1008B000BA01A5019401EDD1F42EE52ED301C201B8
:1008C0000196A11DB11DF80161938F01A9016F2D42
:1008D0007E2D411551056105710571F57C0110E012
:1008E00000E0F201E01BF10BE20DF31D60816A30C4
:1008F00030F5605D50E040E0C60158D00F5F1F4FFB
:10090000E016F10671F7A0960FB6F894DEBF0FBEA1
:10091000CDBFDF91CF911F910F91FF90EF90DF90AE
:10092000CF90BF90AF909F908F907F906F905F908F
:100930004F903F902F9008952C013D01B8CF695CF6
:10094000D9CFCF92DF92EF92FF92CF93DF93EC015A
:100950006A017B012115310569F4E881F981019073
:10096000F081E02D642FDF91CF91FF90EF90DF9029
:10097000CF9009942A30310579F4F7FE0CC050E08D
:1009800040E06DE213D0F094E094D094C094C11C88
:10099000D11CE11CF11C2AE0B701A601CE01DF91B8
:1009A000CF91FF90EF90DF90CF903ACF9A01462FF2
:1009B00050E070E060E0C5CFCF93DF93EC0150E0F2
:1009C00040E06DE0F3DF50E040E06AE0CE01DF910F
:1009D000CF91ECCF9A01AB01770F660B770BB1CFBC
:1009E0002115310541F4DC01ED91FC910190F0817C
:1009F000E02D642F099414CF9A01462F50E070E047
:100A000060E0EECF1F920F920FB60F9211242F933A
:100A10003F938F939F93AF93BF93809112029091D6
:100A20001302A0911402B09115023091110223E03B
:100A3000230F2D3758F50196A11DB11D20931102EA
:100A40008093120290931302A0931402B0931502A4
:100A50008091160290911702A0911802B09119028C
:100A60000196A11DB11D8093160290931702A093C9
:100A70001802B0931902BF91AF919F918F913F914E
:100A80002F910F900FBE0F901F90189526E8230FFF
:100A90000296A11DB11DD2CF3FB7F89480911602E6
:100AA00090911702A0911802B091190226B5A89B47
:100AB00005C02F3F19F00196A11DB11D3FBFBA2FF0
:100AC000A92F982F8827BC01CD01620F711D811DB0
:100AD000911D42E0660F771F881F991F4A95D1F735
:100AE0000895CF92DF92EF92FF92CF93DF936B0145
:100AF0007C01D2DFEB01C114D104E104F10439F42B
:100B0000DF91CF91FF90EF90DF90CF900895C4DFF9
:100B10006C1B7D0B683E734070F381E0C81AD108EE
:100B2000E108F108C851DC4FE6CF789484B58260C3
:100B300084BD84B5816084BD85B5826085BD85B581
:100B4000816085BDEEE6F0E0808181608083E1E830
:100B5000F0E0108280818260808380818160808368
:100B6000E0E8F0E0808181608083E1EBF0E080816B
:100B700084608083E0EBF0E0808181608083EAE73D
:100B8000F0E08081846080838081826080838081C6
:100B9000816080838081806880831092C100089585
:100BA000833081F028F4813099F08230A9F00895E3
:100BB0008630A9F08730C9F08430B1F4809180008C
:100BC0008F7D03C0809180008F778093800008958F
:100BD00084B58F7784BD089584B58F7DFBCF8091D8
:100BE000B0008F778093B00008958091B0008F7D22
:100BF000F9CF90E0FC01E458FF4F2491FC01E0574D
:100C0000FF4FE491EE2389F0F0E0EE0FFF1FE85470
:100C1000FF4FA591B4918FB7611108C0F8949C91D2
:100C2000E22FE095E923EC938FBF0895F894EC91BF
:100C3000E22BF9CF1F93CF93DF93282F30E0F901F8
:100C4000E859FF4F8491F901E458FF4FD491F9011D
:100C5000E057FF4FC491CC23A1F0162F8111A0DFE4
:100C6000EC2FF0E0EE0FFF1FE255FF4FA591B4917E
:100C70008FB711110AC0F894EC91D095DE23DC9364
:100C80008FBFDF91CF911F910895F894EC91DE2BE7
:100C9000F6CFA1E21A2EAA1BBB1BFD010DC0AA1F95
:100CA000BB1FEE1FFF1FA217B307E407F50720F0D5
:100CB000A21BB30BE40BF50B661F771F881F991F50
:100CC0001A9469F760957095809590959B01AC0199
:100CD000BD01CF010895EE0FFF1F0590F491E02DA7
:100CE0000994F999FECF92BD81BDF89A992780B5F4
:100CF0000895262FF999FECF1FBA92BD81BD20BD60
:100D00000FB6F894FA9AF99A0FBE0196089510E07A
:100D1000C3E6D0E003C0FE01DEDF2196C436D10772
:060D2000D1F7F894FFCFAB
:100D26000D000900000000009901D203EA0300004B
:100D360000000903D203EA03B102DA02C302FA028F
:00000001FF
