:100000005CC0000081C000007FC000007DC0000017
:100010007BC0000079C000000C94080B75C0000084
:1000200073C0000071C000006FC000006DC0000010
:100030006BC0000069C0000067C0000065C0000020
:100040000C94A70F61C000000C94BB0D5DC00000B4
:100050005BC0000059C0000057C0000055C0000040
:1000600053C0000051C00000000000070002010062
:100070000003040600000000000000000102040864
:100080001020408001020408102001020408102002
:10009000040404040404040402020202020203032E
:1000A00003030303000000002300260029000000D2
:1000B0000000240027002A00450E11241FBECFEFA8
:1000C000D8E0DEBFCDBF11E0A0E0B1E0ECEAF3E2A2
:1000D00002C005900D92A43CB107D9F722E0A4EC30
:1000E000B1E001C01D92AE3EB207E1F710E0CDE5F0
:1000F000D0E004C02197FE010E949910CC35D107B1
:10010000C9F7AED00C94D4117BCFCF92DF92EF928F
:10011000FF920F931F93CF93DF93EC010E9451093D
:10012000092E000CAA0BBB0B6C017D012FEFC21A2C
:10013000D20AE20AF20AB601CE010E945A09D4D2CA
:10014000EC0167E071E08AE492E00E94A50ECE0126
:100150006FE170E00E9463104AE050E08AE492E0B0
:100160000E949F0F85E0C816D104E104F10468F0F5
:1001700010E000E030E020E04EE350E064E08091E9
:10018000C5019091C6010E941F09DF91CF911F9177
:100190000F91FF90EF90DF90CF9008950F931F93F2
:1001A00040E052EC61E070E08AE492E00E94F00DE1
:1001B00062E084E00E941A1005E810E030E020E0E0
:1001C00041E06FE170E08DE291E00E94EB089093D6
:1001D000C6018093C501892BA1F086D210E000E012
:1001E00030E020E0AC0161E08091C5019091C60152
:1001F0000E941F098093C401813019F41F910F914F
:1002000023C21F910F9108950F931F9384E00E94C2
:100210003B10019711F568E371E08AE492E00E94D7
:10022000860F62D203E010E030E020E0AC0162E033
:100230008091C5019091C6010E941F0967E671E097
:10024000813011F069E871E08AE492E00E94860F43
:1002500084E00E943B100197D9F31F910F910895FC
:100260009DDFD2DFFECFE091F401F091F5018081B6
:10027000811107C08FEF9FEF9093CB018093CA014C
:100280000895E091F401F091F5010580F681E02DEB
:1002900080819181F1CFBF92CF92DF92EF92FF9256
:1002A0000F931F93CF93DF93EC01B62EC090D30131
:1002B000D090D4010091F4011091F501E090F20189
:1002C000F090F30180912C0290912D0202960E94F1
:1002D000E709CF3FDC0709F042C0BB2009F43FC06B
:1002E000E091D701F091D801A0912C02B0912D029C
:1002F0001596FC93EE931497A0912C02B0912D02C9
:100300008481958117969C938E93169780912C02E9
:1003100090912D02A481B581029613969C938E93A1
:10032000129780912C0290912D02029695838483DE
:10033000E0912C02F0912D0286ED91E09387828767
:100340008091D6018F5F8093D601DF91CF911F916D
:100350000F91FF90EF90DF90CF90BF900895CC0D5C
:10036000DD1DE0912C02F0912D02D383C2836091B8
:100370002C0270912D026E5F7F4FCC15DD0558F475
:10038000C701DF91CF911F910F91FF90EF90DF9008
:10039000CF90BF90E6C7C801E4D78091CA01909181
:1003A000CB01C817D90788F6D093CB01C093CA01F7
:1003B000CCCFCF93DF938091DF01811103C0DF9118
:1003C000CF9108950FB6F8940F92E091E501F09166
:1003D000E601C681D781CE010296F9D78091D50179
:1003E00081508093D5018091DF0181508093DF019E
:1003F0000F900FBE8F89988D94D7CE0192D7DBCF07
:10040000D8DF80910802823010F00E941B0A5BD76F
:10041000F7CF5F926F927F928F929F92AF92BF922F
:10042000CF92DF92EF92FF920F931F93CF93DF93C0
:100430003C016B015A014901502ECA0163D78C015E
:10044000892B09F4C8C080E390E05CD7EC01892BCC
:1004500009F4BFC080E3DE011D928A95E9F7188F89
:100460000F8BA50165EA70E0C8010E94CD11B1E0D3
:10047000AB1AB1088F89988DA80EB91EC114D1048A
:1004800009F0BAC0052D043008F003E00E8B09A76F
:100490006E01B2E0CB0ED11CC6015FD7CE010C9627
:1004A0005CD7D987C88784E090E0801B91099D873D
:1004B0008C87DB8BCA8BA401B301C501ABD79983B1
:1004C0008883E114F10419F0F701D183C0830FB6DA
:1004D000F8940F928091D5018F5F8093D501809120
:1004E0002C0290912D02892B09F09CC0D0932D02F3
:1004F000C0932C028091D501813039F588E092E0DB
:100500001ED781E192E01BD78AE192E018D783E2FF
:1005100092E015D78FEF91E012D786EF91E00FD7D9
:1005200089EE91E00CD780EE91E009D786ED91E05D
:1005300006D78FEF91E09093F5018093F40186EF59
:1005400091E09093F3018093F2018091CC018F5F51
:100550008093CC01AE898091D2018A1710F4A093C8
:10056000D20189E08A9FD0011124A85FBD4F119666
:100570000D90BC91A02DBD83AC8314962D913C9120
:1005800015973F832E831496ED91FC911597D38296
:10059000C2821596DC92CE921497EE89E89FF00104
:1005A0001124E85FFD4FFB87EA8780818F5F80839E
:1005B0000F900FBE8091D101882349F0E0912C0269
:1005C000F0912D0296898E89981708F434D781E02E
:1005D00003C0C801A6D68FEFDF91CF911F910F9175
:1005E000FF90EF90DF90CF90BF90AF909F908F9053
:1005F0007F906F905F900895F601AE01475E5F4F68
:10060000C60140962191DA012D93AD019F01215041
:100610003109D9012C91222319F08E179F0791F7E8
:1006200018A630CF8091D10181118FCFE0912C029B
:10063000F0912D029E898689981708F486CFD09371
:100640002D02C0932C0281CFEF92FF920F93CF9394
:10065000DF93CDB7DEB760970FB6F894DEBF0FBE5D
:10066000CDBFA5EAB1E0FE01319625EB31E0BF0137
:100670008D918193882319F02A173B07C9F788ECDD
:10068000E82E81E0F82E00E030E020E040EC50E081
:1006900080E092E0BEDE882399F0813089F47DD538
:1006A000813071F4F8942FEF3FEF3093CB0120931A
:1006B000CA018093D1011092D4011092D3017AD74C
:1006C0008091060160960FB6F894DEBF0FBECDBFD5
:1006D000DF91CF910F91FF90EF9008958091C70126
:1006E0008F5F8093C70108950FB6F8940F928091A1
:1006F000D3019091D4010F900FBE0895CF92DF9255
:10070000EF92FF920F931F93CF93DF938091C701D6
:100710008111E4C0C091D301D091D4016E018FEF5B
:10072000C81AD80AD092D401C092D301C114D104FE
:10073000B1F48091F4019091F5012091F201309192
:10074000F3013093F5012093F4019093F30180932A
:10075000F2018091CD018F5F8093CD0184DD809186
:10076000CA019091CB01C816D906E8F480E0E09167
:100770002C02F0912D02E689D9E0ED9FF0011124C1
:10078000E85FFD4F9081923008F081E09091CE01BA
:10079000911181E0DF91CF911F910F91FF90EF9028
:1007A000DF90CF90089580E069E0E091F401F0914E
:1007B000F5019081911107C02FEF3FEF3093CB01EE
:1007C0002093CA01D4CFE091F401F091F5010580A6
:1007D000F681E02D0680F781E02D22813381C2165B
:1007E000D30660F3C285D385248135814681578144
:1007F000D90115965C934E93149746815781DA017F
:1008000013963C932E9312979F012E5F3F4F0981C1
:100810001A810217130711F45A834983138612862B
:10082000988191509883A489B5891097F9F04685ED
:10083000578500891189EA011D830C83008911897C
:10084000E8015B834A831196ED90FC901297AF010B
:10085000445F5F4FE416F50621F412961C930E9345
:100860001197158A148A9C9191509C93A689909116
:10087000D2019A1710F4A093D2016A9FD0011124DB
:10088000A85FBD4F11960D90BC91A02DB583A48398
:1008900014964D915C9115975783468314964D910C
:1008A0005C911597EA013B832A8315963C932E931E
:1008B00014972689269FD0011124A85FBD4FB387C6
:1008C000A2879C919F5F9C93E0912C02F0912D0256
:1008D0009689921708F069CF81E067CF8091CF01A8
:1008E0009091D00101969093D0018093CF0180E048
:1008F00051CFEF92FF920F931F93CF93DF930FB6D9
:10090000F8940F928091C70181508093C701809124
:10091000C701882351F080E00F900FBEDF91CF9187
:100920001F910F91FF90EF9008958091D50188233A
:1009300091F3E090EE01F090EF01F0E0E0E039E0BB
:1009400041E08091E90181111FC0EF2B09F08BDCA0
:10095000C091CF01D091D001209759F011E0CEDEA7
:1009600081111093CE012197D1F71092D0011092EE
:10097000CF018091CE01882371F280912C02909159
:100980002D0259D581E0C8CFD7011696ED91FC9183
:10099000A489B5896685778580899189EB019D83D6
:1009A0008C8380899189EC017B836A83BF01645FBA
:1009B0007F4F11960D911C9112970617170721F47E
:1009C00012969C938E931197158A148A8C9181505C
:1009D0008C93A285B3858481958166817781EC01B2
:1009E0007D836C8366817781EB019B838A83CF0152
:1009F000029611960D911C9112970817190721F470
:100A000012967C936E931197138612862C91215027
:100A10002C93A6892091D2012A1710F4A093D20119
:100A20003A9FD0011124A85FBD4F11960D90BC9143
:100A3000A02DB583A48314966D917C91159777832F
:100A4000668314966D917C911597EB019B838A8345
:100A500015969C938E9314979689939FD001112499
:100A6000A85FBD4FB387A2878C918F5F8C93A091B5
:100A70002C02B0912D0256968C91891708F061CF07
:100A80004093CE015ECF8091C701882321F081E0A1
:100A90008093CE0108951092CE01A0912C02B091C6
:100AA0002D02E0912C02F0912D022D913C9187892D
:100AB000908D8217930758F060912C0270912D024F
:100AC00080912C0290912D02675E7F4F0FD4209170
:100AD000D20189E0422F50E0849FF001859FF00D04
:100AE0001124E85FFD4F9081992359F1A181B281D2
:100AF00012966D917C9172836183289FC0011124AD
:100B0000855F9D4F6817790721F4858196819283CF
:100B1000818389E0849FF001859FF00D1124E85FB7
:100B2000FD4F0180F281E02D8681978190932D0207
:100B300080932C022093D20180912C0290912D025F
:100B400008952150C7CFCF93DF93EB0160912C0222
:100B500070912D02645F7F4F04D461E0CE01DF917C
:100B6000CF9199CB0F931F93CF93DF93FC018B0110
:100B7000A181B28180912C0290912D02EC01BF875E
:100B8000AE8780912C0290912D0214962D913C916C
:100B90001597EC01398B288B20912C0230912D0276
:100BA00014968D919C911597245F3F4FEC013B83E8
:100BB0002A8320912C0230912D02245F3F4F1596FD
:100BC0003C932E931497A0912C02B0912D02559630
:100BD000FC93EE93549790819F5F9083442311F090
:100BE0000FEF1FEF642FC801DF91CF911F910F917D
:100BF00052CBCF93DF93DC011596ED91FC910680EB
:100C0000F781E02DA489B58986859785208931896A
:100C1000EC013D832C83C089D1899B838A83CF01DA
:100C20000C9611962D913C9112972817390721F4B3
:100C30001296DC93CE931197158A148A2C91215029
:100C40002C932091C701211157C0A285B3858481BF
:100C5000958126813781EC013D832C83C681D78124
:100C60009B838A83CF01029611962D913C91129716
:100C70002817390721F41296DC93CE931197138627
:100C800012862C9121502C93C6892091D2012C17C9
:100C900010F4C093D20129E02C9FE0011124C85F19
:100CA000DD4F0980DA81C02DD583C4834C815D81FD
:100CB00057834683AC81BD8113969C938E93129784
:100CC0009D838C83A689A29FD0011124A85FBD4F6C
:100CD000B387A2878C918F5F8C93A0912C02B091E7
:100CE0002D02968956968C91891730F581E0809374
:100CF000CE01DF91CF910895A091EA01B091EB016F
:100D0000B787A68714962D913C911597318B208B30
:100D10001496CD91DC9115979B838A8315969C93AD
:100D20008E93149789EE91E0958B848B8091E901E5
:100D30008F5F8093E901D1CF80E0DBCF2091CD019F
:100D4000FC0120832091D3013091D401328321838F
:100D50000895CF93DF930FB6F8940F924091D3018B
:100D60005091D401DB012D913C912F3F3207F9F0D6
:100D7000EC01E981FA81A091CD01B881BA1761F047
:100D80004E175F0748F0FB011182108281E00F903F
:100D90000FBEDF91CF9108954E1B5F0B4217530793
:100DA00090F7241B350BDB012D933C93C7DF80E0CC
:100DB000EECF81E08093CE0108958091D101882308
:100DC00031F08091C701882321F080E0089581E00F
:100DD000089582E008950F931F93CF93DF93EC0162
:100DE000892B31F480E0DF91CF911F910F9108950D
:100DF0008AA581508AA72E8999A5291799F381116F
:100E0000F1CF8E010E5F1F4FC801E1D289A58E8BF5
:100E1000482F50E024E030E0241B350B3D872C8721
:100E20009091D201981710F48093D20189E0849FA9
:100E3000D001859FB00D1124A85FBD4F11960D9074
:100E4000BC91A02DBD83AC8314962D913C91159738
:100E50003F832E831496ED91FC91159713830283A3
:100E600015961C930E931497EE89E89FF0011124B8
:100E7000E85FFD4FFB87EA8780818F5F808381E099
:100E8000B2CF0FB6F8940F92809132029091330254
:100E9000892BD1F481E492E052D288E392E04FD2E0
:100EA00081E492E0909337028093360288E392E0E7
:100EB000909335028093340240E065E08AE09DD44F
:100EC00090933302809332020F900FBE0895FC017D
:100ED00073836283918780874617570788F0421B88
:100EE000530B8485958548175907C0F4BF016E5F81
:100EF0007F4F809134029091350233D280E0089583
:100F00004217530718F46217730740F4BF016E5F6E
:100F10007F4F8091360290913702EFCF81E00895A4
:100F2000EF92FF920F931F93CF93DF93EC018B010E
:100F30007A016C857D85600F711F9801A701CE0134
:100F4000C6DF811107C0DF91CF911F910F91FF90F4
:100F5000EF9008958C859D85080F191FE889F98900
:100F6000CE010995E6CFEF92FF920F931F93CF9397
:100F7000DF938C017B01E0913602F091370205800E
:100F8000F681E02DC681D781CE01029620D28A89D2
:100F900082FF0EC0A701B801CE01C2DFE889F9893E
:100FA000CE01DF91CF911F910F91FF90EF900994A7
:100FB0008E7F8A8BF3CFE0913602F09137028081E9
:100FC00081110DC0809134029091350290933702C7
:100FD00080933602F0933502E09334020895058041
:100FE000F681E02D6FEF7FEF80819181BCDFE3CF51
:100FF000CF93DF9300D000D01F92CDB7DEB785E04E
:10100000B82ECE0101967C01E0913602F0913702B4
:10101000A08010E000E0AA2029F00580F681E02DF4
:10102000008111815BDB60DB6C0180912E0290916D
:101030002F02C816D90608F049C0BDDFD0922F0292
:10104000C0922E0256DCD701EB2D1D92EA95E9F7EE
:1010500050E040E0B70180913202909133027ED49B
:10106000882391F2898187FDF3CF0C811D81D801FE
:101070001A968D919C91892B19F0C8010296A7D1DF
:1010800033DB6C0180912E0290912F02C816D90695
:1010900008F491DFD0922F02C0922E02E981E15034
:1010A000E930B0F60E2E000CFF0BE35AF74FD801D3
:1010B00052968C9152970C94991089088908C90806
:1010C000B308C40889088908C908B308D0922F0258
:1010D000C0922E02AA2041F0C016D10660F009DCB1
:1010E000B601C80140DFAFCFE0913402F091350284
:1010F00041E08081811140E0B8016C197D09809147
:10110000320290913302AFD4F4DB81119CCF93D1A2
:101110009ACF8160F801828B2A813B816485758535
:10112000620F731FA601C801D2DE882309F490CF95
:10113000D80152968C91529782FF11C06A817B81AF
:101140001C968D919C91680F791FA601C801E8DE5D
:10115000D8015096ED91FC91C801099579CF8E7F09
:10116000F801828BF5CF816052968C9352976A81F9
:101170007B811D967C936E931C976C0D7D1D960153
:10118000A601C801A4DE64CF81FD03C0C801C9D097
:101190005FCF8E7FF801828B5BCFEF92FF920F9330
:1011A00070DE8091320290913302892B91F080E3BE
:1011B000E82E82E0F82E03E030E020E04CE550E03D
:1011C0006AEA71E088EF97E024D90F91FF90EF90E1
:1011D000089580E0FACF8F929F92AF92BF92CF9204
:1011E000DF92FF920F931F93CF93DF934C015B012C
:1011F000F42E690183E190E085D0EC01892B91F018
:101200001A8A3FDE99828882BD86AC86DF86CE86CA
:10121000198B088BCE010296A0D0FF2019F08A8985
:1012200084608A8BCE01DF91CF911F910F91FF9047
:10123000DF90CF90BF90AF909F908F9008950F93C5
:101240001F93CF93DF9300D000D01F92CDB7DEB7AE
:101250002091320230913302232B59F480E00F9019
:101260000F900F900F900F90DF91CF911F910F91E2
:10127000089569835B834A839D838C83663074F70A
:101280009CDDE0913202F091330220E0A80182302F
:1012900011F050E040E0BE016F5F7F4FCF01D3D22D
:1012A000DECF0FB6F8940F92FC01868597850F90DC
:1012B0000FBE08950FB6F8940F92FC0177876687EA
:1012C0000F900FBE08950C940401259A2D9A08954D
:1012D0001D9A0895FADF2FEF80E792E021508040B9
:1012E0009040E1F700C00000F3DFF5CFEEDF2FEF15
:1012F00087EA91E6215080409040E1F700C000006D
:10130000E7DFF5CFCF93DF93EC01E8D9CE0117D714
:10131000EC01EFDA209709F4DDDFCE01DF91CF9108
:101320000895CF93DF93009739F0EC01D7D9CE0120
:10133000A2D7DF91CF91DDCADF91CF910895FC0153
:101340000396928381832FEF3FEF34832383968329
:1013500085839087878310820895FC01118610860B
:1013600008950F931F93CF93DF938C01FB0180812E
:101370009181D80113968F3F9807F1F4E801AF816E
:10138000B88512968D919C91139793838283EC017B
:10139000FD83EC83B583A4831396FC93EE9312979D
:1013A00011870087F80180818F5F8083DF91CF9163
:1013B0001F910F910895D90112962D913C91139789
:1013C000E9014881598184179507A8F7DACFCF93AF
:1013D000DF93FC01A085B1858281938124813581D1
:1013E000EC013D832C83C481D5819B838A83119634
:1013F0008D919C9112978E179F0721F41296DC9382
:10140000CE931197118610868C9181508C93DF9129
:10141000CF910895FC0160833197708331971082DA
:10142000319720E820833197108277974083319756
:101430005083839708950F920FB6F8940F921F92DE
:1014400011242F923F924F925F926F927F928F92D0
:101450009F92AF92BF92CF92DF92EF92FF920F9343
:101460001F932F933F934F935F936F937F938F932C
:101470009F93AF93BF93CF93DF93EF93FF93A0918D
:101480002C02B0912D020DB60D920EB60D92FBDA24
:10149000A0912C02B0912D02CD91CDBFDD91DEBF88
:1014A000FF91EF91DF91CF91BF91AF919F918F917C
:1014B0007F916F915F914F913F912F911F910F916C
:1014C000FF90EF90DF90CF90BF90AF909F908F9064
:1014D0007F906F905F904F903F902F901F900F9054
:1014E0000FBE0F9008950F920FB6F8940F921F92AF
:1014F00011242F923F924F925F926F927F928F9220
:101500009F92AF92BF92CF92DF92EF92FF920F9392
:101510001F932F933F934F935F936F937F938F937B
:101520009F93AF93BF93CF93DF93EF93FF93A091DC
:101530002C02B0912D020DB60D920EB60D9213BE77
:10154000DDD88111A0DAA0912C02B0912D02CD91AD
:10155000CDBFDD91DEBFFF91EF91DF91CF91BF91C4
:10156000AF919F918F917F916F915F914F913F913B
:101570002F911F910F91FF90EF90DF90CF90BF9030
:10158000AF909F908F907F906F905F904F903F9023
:101590002F901F900F900FBE0F900895A89588E18F
:1015A00090EC0FB6F894A895809360000FBE9093CE
:1015B00060000895F3DFA0912C02B0912D02CD912F
:1015C000CDBFDD91DEBFFF91EF91DF91CF91BF9154
:1015D000AF919F918F917F916F915F914F913F91CB
:1015E0002F911F910F91FF90EF90DF90CF90BF90C0
:1015F000AF909F908F907F906F905F904F903F90B3
:101600002F901F900F900FBE0F90089581E00895C6
:101610006ADF18950FB6F8940F92FC01928D0F9027
:101620000FBE81E0911180E008950F931F93CF9337
:10163000DF93EC01042F1A8D4C8D411110C088816D
:101640009981892B19F58C819D81C5DB1D821C82B6
:101650001F5F1A8FDF91CF911F910F91089550E076
:10166000011116C08A819B818FD68C8D2A813B8186
:10167000820F932F911D9B838A832C813D8182173A
:10168000930720F0888199819B838A8380E0E0CF53
:101690008E819F8179D68C8D90E09195819591096D
:1016A0002E813F81280F391F3F832E834881598126
:1016B0002417350730F42C813D81820F931F9F83BF
:1016C0008E83023019F7112309F31150DFCFFC018B
:1016D000CB01448D442399F050E026813781240FBB
:1016E000351F37832683648175812617370720F0DD
:1016F00020813181378326836681778145C60895AD
:10170000EF92FF921F93CF93DF93EC010FB6F89403
:101710000F921E8D7C0181E1E80EF11C1116C4F0C0
:101720008FEF8E8F0F900FBE0FB6F8940F921D8D16
:101730007E0188E0E80EF11C11169CF08FEF8D8F72
:101740000F900FBEDF91CF911F91FF90EF90089502
:101750008989882329F3C7014CDA81112ADB1150CA
:10176000DDCF8885882351F3C70143DA811121DB5E
:101770001150E2CFCF93DF93009709F43CC0FC01F6
:10178000238D222309F437C0EC010FB6F8940F9291
:1017900080819181238D448DFC01249FE00DF11DFA
:1017A0001124FD83EC831A8E9B838A832150330B93
:1017B000429FF001439FF00D11248E0F9F1F9F83C6
:1017C0008E838FEF8D8F8E8F61110EC08885882359
:1017D00029F0CE0108960DDA81112DDE0F900FBE93
:1017E00081E0DF91CF910895CE010896A8DDCE016A
:1017F0004196A5DDF3CF80E0F4CF0F931F93CF93F5
:10180000DF93811108C0D0E0C0E0CE01DF91CF911D
:101810001F910F910895162F082F689FC001112462
:101820004F9670DDEC01009771F3111108C0998398
:1018300088830B8F1C8F61E0CE019CDFE6CF4F9633
:1018400099838883F6CFAF92BF92CF92DF92FF92B7
:101850000F931F93CF93DF9300D000D01F92CDB78B
:10186000DEB78C016B015D834C83F22E80E0580162
:1018700098E0A90EB11C0FB6F8940F92F801228DD2
:10188000938D291718F0F2E0FF121FC04F2DB601FB
:10189000C801CBDEF8019189992319F0C80141965E
:1018A000A8D98111C8DD0F900FBE81E00F900F9075
:1018B0000F900F900F90DF91CF911F910F91FF909C
:1018C000DF90CF90BF90AF9008952C813D81232B66
:1018D00021F40F900FBE80E0E9CF811103C0CE014B
:1018E00001962CDA0F900FBE0E946E030FB6F8948B
:1018F0000F92F801858D8F3F09F4158EF801868DC2
:101900008F3F09F4168E0F900FBEBE016C5F7F4FA4
:10191000CE0101961EDA81111CC00FB6F8940F9209
:10192000F801928D838D0F900FBE98130DC06C81BE
:101930007D81C50108D9C801E3DE0E9479048111C7
:1019400001C079DD81E097CFC801DADE0E94790419
:10195000F9CFC801D5DE0E947904BDCFAF92BF9206
:10196000CF92DF92FF920F931F93CF93DF9300D01C
:1019700000D01F92CDB7DEB78C016B015D834C8325
:1019800080E0580191E1A90EB11C0FB6F8940F92B6
:10199000F801F28CFF2001F1B601C80198DEFA943B
:1019A000F801F28E8085882329F0C801089621D994
:1019B000811141DD0F900FBE81E00F900F900F90CD
:1019C0000F900F90DF91CF911F910F91FF90DF90BB
:1019D000CF90BF90AF9008952C813D81232B21F4AF
:1019E0000F900FBE80E0E9CF811103C0CE010196B8
:1019F000A5D90F900FBE0E946E030FB6F8940F92F8
:101A0000F801858D8F3F09F4158EF801868D8F3F83
:101A100009F4168E0F900FBEBE016C5F7F4FCE0192
:101A2000019697D9811116C0C801F4DD882369F0A9
:101A30006C817D81C50187D8C80162DE0E9479046E
:101A4000811101C0F8DC81E0A0CFC80159DE0E94FD
:101A50007904F9CFC80154DE0E947904C801DADDA7
:101A6000882389F3BFCFCF93DF93EC010FB6F894AF
:101A70000F928D8D8F3F09F41D8E8E8D8F3F09F44F
:101A80001E8E0F900FBE8A8D811103C0CE0141962C
:101A900069D8CE01DF91CF9133CEFC012281338111
:101AA000F901E058FF4F808191812E573F4FF90196
:101AB00020813181821B930B8F7799270895FC0138
:101AC00082819381FC01EE57FF4F20813181329753
:101AD000408151814217530731F0820F931FFC015F
:101AE000808190E008958FEF9FEF0895DC011296BA
:101AF0008D919C91FC01EE57FF4F20813181DC01DB
:101B0000A058BF4F4D915C914217530761F0820F6F
:101B1000931FDC018C912F5F3F4F2F773327318349
:101B2000208390E008958FEF9FEF0895DC011296D7
:101B30008D919C91FC01E058FF4F8E579F4FDC0127
:101B40008D919C91918380830895FC01A085B1853E
:101B5000218981E090E002C0880F991F2A95E2F761
:101B60002C9130E028233923232BD1F30484F585ED
:101B7000E02D608308951F920F920FB60F921124EB
:101B80002F933F934F936F937F938F939F93EF93F5
:101B9000FF934091C6002091DD023091DE02C90121
:101BA00001968F7799276091DF027091E002861786
:101BB000970741F0235A3D4FF90140839093DE028D
:101BC0008093DD02FF91EF919F918F917F916F91B3
:101BD0004F913F912F910F900FBE0F901F9018952E
:101BE000CF93DF93EC019A01AB01E885F9852115CC
:101BF00081EE38074105510509F443C06A8981E047
:101C000090E001C0880F6A95EAF7808360E079E090
:101C10008DE390E06CD2BA01A901415051096109EC
:101C200071097695679557954795CA01EC81FD81B5
:101C30009083EE81FF818083EA85FB8520813E854C
:101C400081E090E0AC0101C0440F3A95EAF7242B03
:101C50002083EA85FB8520813F85AC0101C0440FCC
:101C60003A95EAF7242B2083EA85FB852081388981
:101C700001C0880F3A95EAF7822B8083DF91CF91DC
:101C80000895108280E190E0D1CFEAE4F2E086EBA3
:101C900091E0918380838DE592E09383828385EC4C
:101CA00090E09583848384EC90E09783868380EC36
:101CB00090E09187808781EC90E09387828786EC23
:101CC00090E09587848784E0868783E0878787E034
:101CD000808B85E0818B81E0828B08950F931F9329
:101CE000CF93DF93EC018B01F80161918F016623A3
:101CF00041F0E881F9810190F081E02DCE01099554
:101D0000F3CFDF91CF911F910F910895EF92FF9242
:101D10000F931F93CF93DF937C01EB018B01040F93
:101D2000151FC017D10751F06991D701ED91FC91B2
:101D30000190F081E02DC7010995F3CFDF91CF919C
:101D40001F910F91FF90EF900895DC01ED91FC91B0
:101D50000280F381E02D09942F923F924F925F927F
:101D60006F927F928F929F92AF92BF92CF92DF92AB
:101D7000EF92FF920F931F93CF93DF93CDB7DEB710
:101D8000A0970FB6F894DEBF0FBECDBF6C01411512
:101D9000510561057105E1F450E040E060E3A09673
:101DA0000FB6F894DEBF0FBECDBFDF91CF911F916C
:101DB0000F91FF90EF90DF90CF90BF90AF909F90EA
:101DC0008F907F906F905F904F903F902F908AC040
:101DD0008E010F5F1F4F412C512C32011801822EB2
:101DE000912CB12CA12CCB01BA01A50194017FD17A
:101DF000F42EE52ED301C2010196A11DB11DF801FB
:101E000061938F01A9016F2D7E2D4115510561054B
:101E1000710571F57C0110E000E0F201E01BF10BAF
:101E2000E20DF31D60816A3030F5605D50E040E006
:101E3000C60158D00F5F1F4FE016F10671F7A0964C
:101E40000FB6F894DEBF0FBECDBFDF91CF911F91CB
:101E50000F91FF90EF90DF90CF90BF90AF909F9049
:101E60008F907F906F905F904F903F902F9008954C
:101E70002C013D01B8CF695CD9CFCF92DF92EF92B0
:101E8000FF92CF93DF93EC016A017B0121153105AD
:101E900069F4E881F9810190F081E02D642FDF91F0
:101EA000CF91FF90EF90DF90CF9009942A303105C9
:101EB00079F4F7FE0CC050E040E06DE213D0F094EE
:101EC000E094D094C094C11CD11CE11CF11C2AE008
:101ED000B701A601CE01DF91CF91FF90EF90DF9087
:101EE000CF903ACF9A01462F50E070E060E0C5CF26
:101EF000CF93DF93EC0150E040E06DE0F3DF50E082
:101F000040E06AE0CE01DF91CF91ECCFCF93DF9339
:101F1000EC011BDFCE01DF91CF91EACF2115310516
:101F200041F4DC01ED91FC910190F081E02D642FF2
:101F3000099412CF9A01AB0170E060E0EFCFCF932C
:101F4000DF93EC01F7DFCE01DF91CF91D1CF1F926C
:101F50000F920FB60F9211242F933F938F939F935D
:101F6000AF93BF938091E2029091E302A091E402CB
:101F7000B091E5023091E10223E0230F2D3758F5AF
:101F80000196A11DB11D2093E1028093E20290937E
:101F9000E302A093E402B093E5028091E6029091FF
:101FA000E702A091E802B091E9020196A11DB11DDE
:101FB0008093E6029093E702A093E802B093E902CF
:101FC000BF91AF919F918F913F912F910F900FBE35
:101FD0000F901F90189526E8230F0296A11DB11DA2
:101FE000D2CF833081F028F4813099F08230A9F08B
:101FF00008958630A9F08730C9F08430B1F480911B
:1020000080008F7D03C0809180008F778093800057
:10201000089584B58F7784BD089584B58F7DFBCFF7
:102020008091B0008F778093B00008958091B000C8
:102030008F7DF9CF90E0FC01E458FF4F2491FC0123
:10204000E057FF4FE491EE2389F0F0E0EE0FFF1F21
:10205000E255FF4FA591B4918FB7611108C0F89474
:102060009C91E22FE095E923EC938FBF0895F894BB
:10207000EC91E22BF9CFCF93DF93282F30E0F901D9
:10208000E859FF4F8491F901E458FF4FD491F901C9
:10209000E057FF4FC491CC2399F08111A2DFEC2FC0
:1020A000F0E0EE0FFF1FEC55FF4FA591B491EC91BE
:1020B000ED2381E090E009F480E0DF91CF91089575
:1020C00080E090E0FACFAA1BBB1B51E107C0AA1F1A
:1020D000BB1FA617B70710F0A61BB70B881F991FC9
:1020E0005A95A9F780959095BC01CD010895A1E27C
:1020F0001A2EAA1BBB1BFD010DC0AA1FBB1FEE1F82
:10210000FF1FA217B307E407F50720F0A21BB30BCC
:10211000E40BF50B661F771F881F991F1A9469F748
:1021200060957095809590959B01AC01BD01CF01A4
:102130000895EE0FFF1F0590F491E02D09940F9381
:102140001F93CF93DF938230910510F482E090E0EB
:10215000E091EC02F091ED0230E020E0B0E0A0E090
:10216000309799F42115310509F44AC0281B390B21
:1021700024303105D8F58A819B816115710589F17B
:10218000FB0193838283FE0111C040815181028152
:10219000138148175907E0F04817590799F4109729
:1021A00061F012960C93129713961C933296CF01FE
:1021B000DF91CF911F910F9108950093EC0210933E
:1021C000ED02F4CF2115310551F04217530738F0D5
:1021D000A901DB019A01BD01DF01F801C1CFEF01C7
:1021E000F9CF9093ED028093EC02CDCFFE01E20F88
:1021F000F31F819391932250310939832883D7CFDC
:102200002091EA023091EB02232B41F4209102014C
:10221000309103013093EB022093EA0220910001F8
:10222000309101012115310541F42DB73EB74091A0
:10223000040150910501241B350BE091EA02F09155
:10224000EB02E217F307A0F42E1B3F0B2817390708
:1022500078F0AC014E5F5F4F2417350748F04E0F02
:102260005F1F5093EB024093EA02819391939FCFBB
:10227000F0E0E0E09CCFCF93DF930097E9F0FC0122
:10228000329713821282A091EC02B091ED02ED011F
:1022900030E020E01097A1F420813181820F931F5C
:1022A0002091EA023091EB022817390709F061C04A
:1022B000F093EB02E093EA02DF91CF910895EA01F7
:1022C000CE17DF07E8F54A815B819E014115510574
:1022D000B1F7E901FB83EA8349915991C40FD51FF6
:1022E000EC17FD0761F4808191810296840F951FA0
:1022F000E90199838883828193819B838A83F0E0BB
:10230000E0E012968D919C9113970097B9F52D916D
:102310003C911197CD010296820F931F2091EA0202
:102320003091EB022817390739F6309751F51092A2
:10233000ED021092EC02B093EB02A093EA02BCCF44
:10234000D383C28340815181840F951FC817D90759
:1023500061F44E5F5F4F88819981480F591F518307
:1023600040838A819B81938382832115310509F003
:10237000B0CFF093ED02E093EC029ECFFD01DC01C3
:10238000C0CF13821282D7CFFB01DC0102C00190C3
:102390000D9241505040D8F70895DC0101C06D9373
:0C23A00041505040E0F70895F894FFCF42
:1023AC000000EE022000034175746F2D72656C6F96
:1023BC0061642074696D65722063616C6C62616329
:1023CC006B20657865637574696E67200041757460
:1023DC006F52656C6F616400546173746572206731
:1023EC00656472C3BC636B742C2054696D65722078
:1023FC0077697264207A7572C3BC636B67657365A9
:10240C00747A742E2E2E0054696D65722065726676
:10241C006F6C677265696368207A7572C3BC636B95
:10242C0067657365747A74210054696D65722D52F9
:10243C0065736574206665686C67657363686C6149
:10244C0067656E210049444C4500546D72205376EB
:10245C00630000000000A50D6E0E860E4D0D760D6E
:04246C005F0D960D5D
:00000001FF
